{"abi":[{"type":"constructor","inputs":[],"stateMutability":"nonpayable"},{"type":"function","name":"getAgent","inputs":[{"name":"agentId","type":"uint256","internalType":"uint256"}],"outputs":[{"name":"agentId_","type":"uint256","internalType":"uint256"},{"name":"agentDomain_","type":"string","internalType":"string"},{"name":"agentAddress_","type":"address","internalType":"address"}],"stateMutability":"view"},{"type":"function","name":"newAgent","inputs":[{"name":"agentDomain","type":"string","internalType":"string"},{"name":"agentAddress","type":"address","internalType":"address"}],"outputs":[{"name":"agentId_","type":"uint256","internalType":"uint256"}],"stateMutability":"nonpayable"},{"type":"function","name":"resolveAgentByAddress","inputs":[{"name":"agentAddress","type":"address","internalType":"address"}],"outputs":[{"name":"agentId_","type":"uint256","internalType":"uint256"},{"name":"agentDomain_","type":"string","internalType":"string"},{"name":"agentAddress_","type":"address","internalType":"address"}],"stateMutability":"view"},{"type":"function","name":"resolveAgentByDomain","inputs":[{"name":"agentDomain","type":"string","internalType":"string"}],"outputs":[{"name":"agentId_","type":"uint256","internalType":"uint256"},{"name":"agentDomain_","type":"string","internalType":"string"},{"name":"agentAddress_","type":"address","internalType":"address"}],"stateMutability":"view"},{"type":"function","name":"totalAgents","inputs":[],"outputs":[{"name":"","type":"uint256","internalType":"uint256"}],"stateMutability":"view"},{"type":"function","name":"updateAgent","inputs":[{"name":"agentId","type":"uint256","internalType":"uint256"},{"name":"newAgentDomain","type":"string","internalType":"string"},{"name":"newAgentAddress","type":"address","internalType":"address"}],"outputs":[{"name":"success_","type":"bool","internalType":"bool"}],"stateMutability":"nonpayable"},{"type":"event","name":"AgentRegistered","inputs":[{"name":"agentId","type":"uint256","indexed":true,"internalType":"uint256"},{"name":"agentDomain","type":"string","indexed":true,"internalType":"string"},{"name":"agentAddress","type":"address","indexed":true,"internalType":"address"}],"anonymous":false},{"type":"event","name":"AgentUpdated","inputs":[{"name":"agentId","type":"uint256","indexed":true,"internalType":"uint256"},{"name":"previousAgentDomain","type":"string","indexed":false,"internalType":"string"},{"name":"newAgentDomain","type":"string","indexed":true,"internalType":"string"},{"name":"previousAgentAddress","type":"address","indexed":false,"internalType":"address"},{"name":"newAgentAddress","type":"address","indexed":true,"internalType":"address"}],"anonymous":false},{"type":"error","name":"AddressAlreadyRegistered","inputs":[{"name":"agentAddress","type":"address","internalType":"address"}]},{"type":"error","name":"AgentNotFound","inputs":[{"name":"agentId","type":"uint256","internalType":"uint256"}]},{"type":"error","name":"DomainAlreadyRegistered","inputs":[{"name":"domain","type":"string","internalType":"string"}]},{"type":"error","name":"InvalidAddress","inputs":[]},{"type":"error","name":"InvalidDomain","inputs":[]},{"type":"error","name":"Unauthorized","inputs":[{"name":"caller","type":"address","internalType":"address"},{"name":"expected","type":"address","internalType":"address"}]}],"bytecode":{"object":"0x6080604052348015600e575f5ffd5b505f5f819055506118ce806100225f395ff3fe608060405234801561000f575f5ffd5b5060043610610060575f3560e01c80632de5aaf7146100645780633bfbbad7146100965780634750d0fa146100c657806388282bc8146100f6578063b2bdcc7014610128578063c50537121461015a575b5f5ffd5b61007e60048036038101906100799190610ef4565b610178565b60405161008d93929190610fdd565b60405180910390f35b6100b060048036038101906100ab91906110a4565b6102c1565b6040516100bd919061112f565b60405180910390f35b6100e060048036038101906100db9190611148565b6108a6565b6040516100ed91906111a5565b60405180910390f35b610110600480360381019061010b91906111be565b610c56565b60405161011f93929190610fdd565b60405180910390f35b610142600480360381019061013d91906111e9565b610d92565b60405161015193929190610fdd565b60405180910390f35b610162610eb1565b60405161016f91906111a5565b60405180910390f35b5f60605f5f60015f8681526020019081526020015f2090505f73ffffffffffffffffffffffffffffffffffffffff16816001015f9054906101000a900473ffffffffffffffffffffffffffffffffffffffff1673ffffffffffffffffffffffffffffffffffffffff1603610203575f60405180602001604052805f8152505f935093509350506102ba565b849350805f01805461021490611261565b80601f016020809104026020016040519081016040528092919081815260200182805461024090611261565b801561028b5780601f106102625761010080835404028352916020019161028b565b820191905f5260205f20905b81548152906001019060200180831161026e57829003601f168201915b50505050509250806001015f9054906101000a900473ffffffffffffffffffffffffffffffffffffffff169150505b9193909250565b5f5f60015f8781526020019081526020015f2090505f73ffffffffffffffffffffffffffffffffffffffff16816001015f9054906101000a900473ffffffffffffffffffffffffffffffffffffffff1673ffffffffffffffffffffffffffffffffffffffff160361036957856040517f0ede975900000000000000000000000000000000000000000000000000000000815260040161036091906111a5565b60405180910390fd5b806001015f9054906101000a900473ffffffffffffffffffffffffffffffffffffffff1673ffffffffffffffffffffffffffffffffffffffff163373ffffffffffffffffffffffffffffffffffffffff16146104215733816001015f9054906101000a900473ffffffffffffffffffffffffffffffffffffffff166040517f295a81c1000000000000000000000000000000000000000000000000000000008152600401610418929190611291565b60405180910390fd5b5f858590501415801561045457505f600286866040516104429291906112f4565b90815260200160405180910390205414155b801561048e5750805f0160405161046b91906113a8565b604051809103902085856040516104839291906113e2565b604051809103902014155b156104d25784846040517f50cb29b30000000000000000000000000000000000000000000000000000000081526004016104c9929190611426565b60405180910390fd5b5f73ffffffffffffffffffffffffffffffffffffffff168373ffffffffffffffffffffffffffffffffffffffff161415801561054b57505f60035f8573ffffffffffffffffffffffffffffffffffffffff1673ffffffffffffffffffffffffffffffffffffffff1681526020019081526020015f205414155b801561059457508560035f8573ffffffffffffffffffffffffffffffffffffffff1673ffffffffffffffffffffffffffffffffffffffff1681526020019081526020015f205414155b156105d657826040517fef3c800b0000000000000000000000000000000000000000000000000000000081526004016105cd9190611448565b60405180910390fd5b5f815f0180546105e590611261565b80601f016020809104026020016040519081016040528092919081815260200182805461061190611261565b801561065c5780601f106106335761010080835404028352916020019161065c565b820191905f5260205f20905b81548152906001019060200180831161063f57829003601f168201915b505050505090505f826001015f9054906101000a900473ffffffffffffffffffffffffffffffffffffffff1690505f87879050146106f0576002835f016040516106a691906114f3565b90815260200160405180910390205f90558686845f0191826106c99291906116ce565b5087600288886040516106dd9291906112f4565b9081526020016040518091039020819055505b5f73ffffffffffffffffffffffffffffffffffffffff168573ffffffffffffffffffffffffffffffffffffffff161461080b5760035f846001015f9054906101000a900473ffffffffffffffffffffffffffffffffffffffff1673ffffffffffffffffffffffffffffffffffffffff1673ffffffffffffffffffffffffffffffffffffffff1681526020019081526020015f205f905584836001015f6101000a81548173ffffffffffffffffffffffffffffffffffffffff021916908373ffffffffffffffffffffffffffffffffffffffff1602179055508760035f8773ffffffffffffffffffffffffffffffffffffffff1673ffffffffffffffffffffffffffffffffffffffff1681526020019081526020015f20819055505b60019350826001015f9054906101000a900473ffffffffffffffffffffffffffffffffffffffff1673ffffffffffffffffffffffffffffffffffffffff16835f0160405161085991906114f3565b6040518091039020897fe9e7c6570c3acc64b4b8fbf1b06ccbe46bd2a5e5e147e9b960f58844e9a104ca858560405161089392919061179b565b60405180910390a4505050949350505050565b5f5f84849050036108e3576040517feb12798200000000000000000000000000000000000000000000000000000000815260040160405180910390fd5b5f73ffffffffffffffffffffffffffffffffffffffff168273ffffffffffffffffffffffffffffffffffffffff1603610948576040517fe6c4247b00000000000000000000000000000000000000000000000000000000815260040160405180910390fd5b5f6002858560405161095b9291906112f4565b908152602001604051809103902054146109ae5783836040517f50cb29b30000000000000000000000000000000000000000000000000000000081526004016109a5929190611426565b60405180910390fd5b5f60035f8473ffffffffffffffffffffffffffffffffffffffff1673ffffffffffffffffffffffffffffffffffffffff1681526020019081526020015f205414610a2f57816040517fef3c800b000000000000000000000000000000000000000000000000000000008152600401610a269190611448565b60405180910390fd5b8173ffffffffffffffffffffffffffffffffffffffff163373ffffffffffffffffffffffffffffffffffffffff1614610aa15733826040517f295a81c1000000000000000000000000000000000000000000000000000000008152600401610a98929190611291565b60405180910390fd5b5f5f81546001019190508190559050604051806040016040528085858080601f0160208091040260200160405190810160405280939291908181526020018383808284375f81840152601f19601f8201169050808301925050505050505081526020018373ffffffffffffffffffffffffffffffffffffffff1681525060015f8381526020019081526020015f205f820151815f019081610b4291906117c9565b506020820151816001015f6101000a81548173ffffffffffffffffffffffffffffffffffffffff021916908373ffffffffffffffffffffffffffffffffffffffff1602179055509050508060028585604051610b9f9291906112f4565b9081526020016040518091039020819055508060035f8473ffffffffffffffffffffffffffffffffffffffff1673ffffffffffffffffffffffffffffffffffffffff1681526020019081526020015f20819055508173ffffffffffffffffffffffffffffffffffffffff168484604051610c1a9291906112f4565b6040518091039020827faef1fcdf962a03943b677ae3b92ef1b34c972aeef794ed6e9ba5f599b461883b60405160405180910390a49392505050565b5f60605f5f60035f8673ffffffffffffffffffffffffffffffffffffffff1673ffffffffffffffffffffffffffffffffffffffff1681526020019081526020015f205490505f8103610cbf575f60405180602001604052805f8152505f93509350935050610d8b565b5f60015f8381526020019081526020015f209050819450805f018054610ce490611261565b80601f0160208091040260200160405190810160405280929190818152602001828054610d1090611261565b8015610d5b5780601f10610d3257610100808354040283529160200191610d5b565b820191905f5260205f20905b815481529060010190602001808311610d3e57829003601f168201915b50505050509350806001015f9054906101000a900473ffffffffffffffffffffffffffffffffffffffff16925050505b9193909250565b5f60605f5f60028686604051610da99291906112f4565b90815260200160405180910390205490505f8103610dde575f60405180602001604052805f8152505f93509350935050610eaa565b5f60015f8381526020019081526020015f209050819450805f018054610e0390611261565b80601f0160208091040260200160405190810160405280929190818152602001828054610e2f90611261565b8015610e7a5780601f10610e5157610100808354040283529160200191610e7a565b820191905f5260205f20905b815481529060010190602001808311610e5d57829003601f168201915b50505050509350806001015f9054906101000a900473ffffffffffffffffffffffffffffffffffffffff16925050505b9250925092565b5f5f54905090565b5f5ffd5b5f5ffd5b5f819050919050565b610ed381610ec1565b8114610edd575f5ffd5b50565b5f81359050610eee81610eca565b92915050565b5f60208284031215610f0957610f08610eb9565b5b5f610f1684828501610ee0565b91505092915050565b610f2881610ec1565b82525050565b5f81519050919050565b5f82825260208201905092915050565b8281835e5f83830152505050565b5f601f19601f8301169050919050565b5f610f7082610f2e565b610f7a8185610f38565b9350610f8a818560208601610f48565b610f9381610f56565b840191505092915050565b5f73ffffffffffffffffffffffffffffffffffffffff82169050919050565b5f610fc782610f9e565b9050919050565b610fd781610fbd565b82525050565b5f606082019050610ff05f830186610f1f565b81810360208301526110028185610f66565b90506110116040830184610fce565b949350505050565b5f5ffd5b5f5ffd5b5f5ffd5b5f5f83601f84011261103a57611039611019565b5b8235905067ffffffffffffffff8111156110575761105661101d565b5b60208301915083600182028301111561107357611072611021565b5b9250929050565b61108381610fbd565b811461108d575f5ffd5b50565b5f8135905061109e8161107a565b92915050565b5f5f5f5f606085870312156110bc576110bb610eb9565b5b5f6110c987828801610ee0565b945050602085013567ffffffffffffffff8111156110ea576110e9610ebd565b5b6110f687828801611025565b9350935050604061110987828801611090565b91505092959194509250565b5f8115159050919050565b61112981611115565b82525050565b5f6020820190506111425f830184611120565b92915050565b5f5f5f6040848603121561115f5761115e610eb9565b5b5f84013567ffffffffffffffff81111561117c5761117b610ebd565b5b61118886828701611025565b9350935050602061119b86828701611090565b9150509250925092565b5f6020820190506111b85f830184610f1f565b92915050565b5f602082840312156111d3576111d2610eb9565b5b5f6111e084828501611090565b91505092915050565b5f5f602083850312156111ff576111fe610eb9565b5b5f83013567ffffffffffffffff81111561121c5761121b610ebd565b5b61122885828601611025565b92509250509250929050565b7f4e487b71000000000000000000000000000000000000000000000000000000005f52602260045260245ffd5b5f600282049050600182168061127857607f821691505b60208210810361128b5761128a611234565b5b50919050565b5f6040820190506112a45f830185610fce565b6112b16020830184610fce565b9392505050565b5f81905092915050565b828183375f83830152505050565b5f6112db83856112b8565b93506112e88385846112c2565b82840190509392505050565b5f6113008284866112d0565b91508190509392505050565b5f81905092915050565b5f819050815f5260205f209050919050565b5f815461133481611261565b61133e818661130c565b9450600182165f8114611358576001811461136d5761139f565b60ff198316865281151582028601935061139f565b61137685611316565b5f5b8381101561139757815481890152600182019150602081019050611378565b838801955050505b50505092915050565b5f6113b38284611328565b915081905092915050565b5f6113c9838561130c565b93506113d68385846112c2565b82840190509392505050565b5f6113ee8284866113be565b91508190509392505050565b5f6114058385610f38565b93506114128385846112c2565b61141b83610f56565b840190509392505050565b5f6020820190508181035f83015261143f8184866113fa565b90509392505050565b5f60208201905061145b5f830184610fce565b92915050565b5f819050815f5260205f209050919050565b5f815461147f81611261565b61148981866112b8565b9450600182165f81146114a357600181146114b8576114ea565b60ff19831686528115158202860193506114ea565b6114c185611461565b5f5b838110156114e2578154818901526001820191506020810190506114c3565b838801955050505b50505092915050565b5f6114fe8284611473565b915081905092915050565b5f82905092915050565b7f4e487b71000000000000000000000000000000000000000000000000000000005f52604160045260245ffd5b5f6020601f8301049050919050565b5f82821b905092915050565b5f6008830261158a7fffffffffffffffffffffffffffffffffffffffffffffffffffffffffffffffff8261154f565b611594868361154f565b95508019841693508086168417925050509392505050565b5f819050919050565b5f6115cf6115ca6115c584610ec1565b6115ac565b610ec1565b9050919050565b5f819050919050565b6115e8836115b5565b6115fc6115f4826115d6565b84845461155b565b825550505050565b5f5f905090565b611613611604565b61161e8184846115df565b505050565b5b81811015611641576116365f8261160b565b600181019050611624565b5050565b601f8211156116865761165781611461565b61166084611540565b8101602085101561166f578190505b61168361167b85611540565b830182611623565b50505b505050565b5f82821c905092915050565b5f6116a65f198460080261168b565b1980831691505092915050565b5f6116be8383611697565b9150826002028217905092915050565b6116d88383611509565b67ffffffffffffffff8111156116f1576116f0611513565b5b6116fb8254611261565b611706828285611645565b5f601f831160018114611733575f8415611721578287013590505b61172b85826116b3565b865550611792565b601f19841661174186611461565b5f5b8281101561176857848901358255600182019150602085019450602081019050611743565b868310156117855784890135611781601f891682611697565b8355505b6001600288020188555050505b50505050505050565b5f6040820190508181035f8301526117b38185610f66565b90506117c26020830184610fce565b9392505050565b6117d282610f2e565b67ffffffffffffffff8111156117eb576117ea611513565b5b6117f58254611261565b611800828285611645565b5f60209050601f831160018114611831575f841561181f578287015190505b61182985826116b3565b865550611890565b601f19841661183f86611461565b5f5b8281101561186657848901518255600182019150602085019450602081019050611841565b86831015611883578489015161187f601f891682611697565b8355505b6001600288020188555050505b50505050505056fea2646970667358221220c47472a32d507ba0df237cff55aed728a3294fd5fbeaf9f572ccff6d83e12b2c64736f6c634300081e0033","linkReferences":{}},"methodIdentifiers":{"getAgent(uint256)":"2de5aaf7","newAgent(string,address)":"4750d0fa","resolveAgentByAddress(address)":"88282bc8","resolveAgentByDomain(string)":"b2bdcc70","totalAgents()":"c5053712","updateAgent(uint256,string,address)":"3bfbbad7"},"id":16}